{
  "contractName": "FruitsStorage",
  "abi": [
    {
      "inputs": [
        {
          "internalType": "string",
          "name": "_fruit",
          "type": "string"
        }
      ],
      "name": "addFruit",
      "outputs": [],
      "stateMutability": "nonpayable",
      "type": "function"
    },
    {
      "inputs": [],
      "name": "getAllFruits",
      "outputs": [
        {
          "internalType": "string[]",
          "name": "",
          "type": "string[]"
        }
      ],
      "stateMutability": "view",
      "type": "function",
      "constant": true
    },
    {
      "inputs": [],
      "name": "getFruitsLength",
      "outputs": [
        {
          "internalType": "uint256",
          "name": "",
          "type": "uint256"
        }
      ],
      "stateMutability": "view",
      "type": "function",
      "constant": true
    },
    {
      "inputs": [
        {
          "internalType": "uint256",
          "name": "_id",
          "type": "uint256"
        }
      ],
      "name": "getFruit",
      "outputs": [
        {
          "internalType": "string",
          "name": "",
          "type": "string"
        }
      ],
      "stateMutability": "view",
      "type": "function",
      "constant": true
    },
    {
      "inputs": [
        {
          "internalType": "uint256",
          "name": "_id",
          "type": "uint256"
        }
      ],
      "name": "deleteFruit",
      "outputs": [],
      "stateMutability": "nonpayable",
      "type": "function"
    }
  ],
  "bytecode": "0x608060405234801561001057600080fd5b50610a54806100206000396000f3fe608060405234801561001057600080fd5b50600436106100575760003560e01c806324050cd91461005c57806376ce7fe9146100785780639094f27f146100a8578063ab9c0222146100c4578063cdd5e563146100e2575b600080fd5b6100766004803603810190610071919061064f565b610100565b005b610092600480360381019061008d91906106ce565b61013f565b60405161009f9190610783565b60405180910390f35b6100c260048036038101906100bd91906106ce565b6101ef565b005b6100cc6102a0565b6040516100d991906107b4565b60405180910390f35b6100ea6102ac565b6040516100f791906108db565b60405180910390f35b60008190806001815401808255809150506001900390600052602060002001600090919091909150908051906020019061013b929190610385565b5050565b606060008281548110610155576101546108fd565b5b90600052602060002001805461016a9061095b565b80601f01602080910402602001604051908101604052809291908181526020018280546101969061095b565b80156101e35780601f106101b8576101008083540402835291602001916101e3565b820191906000526020600020905b8154815290600101906020018083116101c657829003601f168201915b50505050509050919050565b600160008054905061020191906109bb565b811461026d576000600160008054905061021b91906109bb565b8154811061022c5761022b6108fd565b5b906000526020600020016000828154811061024a576102496108fd565b5b906000526020600020019080546102609061095b565b61026b92919061040b565b505b600080548061027f5761027e6109ef565b5b60019003818190600052602060002001600061029b9190610498565b905550565b60008080549050905090565b60606000805480602002602001604051908101604052809291908181526020016000905b8282101561037c5783829060005260206000200180546102ef9061095b565b80601f016020809104026020016040519081016040528092919081815260200182805461031b9061095b565b80156103685780601f1061033d57610100808354040283529160200191610368565b820191906000526020600020905b81548152906001019060200180831161034b57829003601f168201915b5050505050815260200190600101906102d0565b50505050905090565b8280546103919061095b565b90600052602060002090601f0160209004810192826103b357600085556103fa565b82601f106103cc57805160ff19168380011785556103fa565b828001600101855582156103fa579182015b828111156103f95782518255916020019190600101906103de565b5b50905061040791906104d8565b5090565b8280546104179061095b565b90600052602060002090601f0160209004810192826104395760008555610487565b82601f1061044a5780548555610487565b8280016001018555821561048757600052602060002091601f016020900482015b8281111561048657825482559160010191906001019061046b565b5b50905061049491906104d8565b5090565b5080546104a49061095b565b6000825580601f106104b657506104d5565b601f0160209004906000526020600020908101906104d491906104d8565b5b50565b5b808211156104f15760008160009055506001016104d9565b5090565b6000604051905090565b600080fd5b600080fd5b600080fd5b600080fd5b6000601f19601f8301169050919050565b7f4e487b7100000000000000000000000000000000000000000000000000000000600052604160045260246000fd5b61055c82610513565b810181811067ffffffffffffffff8211171561057b5761057a610524565b5b80604052505050565b600061058e6104f5565b905061059a8282610553565b919050565b600067ffffffffffffffff8211156105ba576105b9610524565b5b6105c382610513565b9050602081019050919050565b82818337600083830152505050565b60006105f26105ed8461059f565b610584565b90508281526020810184848401111561060e5761060d61050e565b5b6106198482856105d0565b509392505050565b600082601f83011261063657610635610509565b5b81356106468482602086016105df565b91505092915050565b600060208284031215610665576106646104ff565b5b600082013567ffffffffffffffff81111561068357610682610504565b5b61068f84828501610621565b91505092915050565b6000819050919050565b6106ab81610698565b81146106b657600080fd5b50565b6000813590506106c8816106a2565b92915050565b6000602082840312156106e4576106e36104ff565b5b60006106f2848285016106b9565b91505092915050565b600081519050919050565b600082825260208201905092915050565b60005b8381101561073557808201518184015260208101905061071a565b83811115610744576000848401525b50505050565b6000610755826106fb565b61075f8185610706565b935061076f818560208601610717565b61077881610513565b840191505092915050565b6000602082019050818103600083015261079d818461074a565b905092915050565b6107ae81610698565b82525050565b60006020820190506107c960008301846107a5565b92915050565b600081519050919050565b600082825260208201905092915050565b6000819050602082019050919050565b600082825260208201905092915050565b6000610817826106fb565b61082181856107fb565b9350610831818560208601610717565b61083a81610513565b840191505092915050565b6000610851838361080c565b905092915050565b6000602082019050919050565b6000610871826107cf565b61087b81856107da565b93508360208202850161088d856107eb565b8060005b858110156108c957848403895281516108aa8582610845565b94506108b583610859565b925060208a01995050600181019050610891565b50829750879550505050505092915050565b600060208201905081810360008301526108f58184610866565b905092915050565b7f4e487b7100000000000000000000000000000000000000000000000000000000600052603260045260246000fd5b7f4e487b7100000000000000000000000000000000000000000000000000000000600052602260045260246000fd5b6000600282049050600182168061097357607f821691505b6020821081036109865761098561092c565b5b50919050565b7f4e487b7100000000000000000000000000000000000000000000000000000000600052601160045260246000fd5b60006109c682610698565b91506109d183610698565b9250828210156109e4576109e361098c565b5b828203905092915050565b7f4e487b7100000000000000000000000000000000000000000000000000000000600052603160045260246000fdfea264697066735822122090b9722c890898b3be1371850e4c9251ac6b3c2c84560b89c6b595ec452eab3c64736f6c634300080d0033",
  "immutableReferences": {},
  "source": "// SPDX-License-Identifier: MIT\npragma solidity ^0.8.1;\n\ncontract FruitsStorage {\n    string[] fruits;\n\n    function addFruit(string memory _fruit) public {\n        fruits.push(_fruit);\n    }\n\n    function getAllFruits() public view returns(string[] memory) {\n        return fruits;\n    }\n\n    function getFruitsLength() public view returns(uint) {\n        return fruits.length;\n    }\n\n    function getFruit(uint _id) public view returns(string memory) {\n        return fruits[_id];\n    }\n    \n    function deleteFruit(uint _id) public {\n        // revert(_id < fruits.length, \"index out of bound\");\n       if (_id != fruits.length - 1) {\n           fruits[_id] = fruits[fruits.length - 1];\n       }\n        fruits.pop();\n    }\n}",
  "sourcePath": "/home/webcloud/apps/smart-contracts/fruits-dapp/contracts/Fruits.sol",
  "compiler": {
    "name": "solc",
    "version": "0.8.13+commit.abaa5c0e.Emscripten.clang"
  },
  "schemaVersion": "3.4.7",
  "updatedAt": "2023-03-08T10:55:52.839Z",
  "networkType": "ethereum",
  "devdoc": {
    "kind": "dev",
    "methods": {},
    "version": 1
  },
  "userdoc": {
    "kind": "user",
    "methods": {},
    "version": 1
  }
}